{
	"FundMe.sol": {
		"FundMe": {
			"abi": [
				{
					"inputs": [
						{
							"internalType": "uint256",
							"name": "ethAmount",
							"type": "uint256"
						}
					],
					"name": "ethInGwei",
					"outputs": [
						{
							"internalType": "uint256",
							"name": "",
							"type": "uint256"
						}
					],
					"stateMutability": "pure",
					"type": "function"
				},
				{
					"inputs": [],
					"name": "fund",
					"outputs": [],
					"stateMutability": "payable",
					"type": "function"
				},
				{
					"inputs": [
						{
							"internalType": "uint256",
							"name": "ethAmount",
							"type": "uint256"
						}
					],
					"name": "getConversionRate",
					"outputs": [
						{
							"internalType": "uint256",
							"name": "",
							"type": "uint256"
						}
					],
					"stateMutability": "view",
					"type": "function"
				},
				{
					"inputs": [],
					"name": "getPrice",
					"outputs": [
						{
							"internalType": "uint256",
							"name": "",
							"type": "uint256"
						}
					],
					"stateMutability": "view",
					"type": "function"
				},
				{
					"inputs": [
						{
							"internalType": "uint256",
							"name": "gweiAmount",
							"type": "uint256"
						}
					],
					"name": "gweiInEth",
					"outputs": [
						{
							"internalType": "uint256",
							"name": "",
							"type": "uint256"
						}
					],
					"stateMutability": "pure",
					"type": "function"
				},
				{
					"inputs": [],
					"name": "minimumUSD",
					"outputs": [
						{
							"internalType": "uint256",
							"name": "",
							"type": "uint256"
						}
					],
					"stateMutability": "view",
					"type": "function"
				}
			],
			"devdoc": {
				"kind": "dev",
				"methods": {},
				"version": 1
			},
			"evm": {
				"assembly": "    /* \"FundMe.sol\":213:1395  contract FundMe{... */\n  mstore(0x40, 0x80)\n    /* \"FundMe.sol\":263:265  50 */\n  0x32\n    /* \"FundMe.sol\":235:265  uint256 public minimumUSD = 50 */\n  0x00\n  sstore\n    /* \"FundMe.sol\":213:1395  contract FundMe{... */\n  callvalue\n  dup1\n  iszero\n  tag_1\n  jumpi\n  0x00\n  dup1\n  revert\ntag_1:\n  pop\n  dataSize(sub_0)\n  dup1\n  dataOffset(sub_0)\n  0x00\n  codecopy\n  0x00\n  return\nstop\n\nsub_0: assembly {\n        /* \"FundMe.sol\":213:1395  contract FundMe{... */\n      mstore(0x40, 0x80)\n      jumpi(tag_1, lt(calldatasize, 0x04))\n      shr(0xe0, calldataload(0x00))\n      dup1\n      0x33596ac8\n      eq\n      tag_2\n      jumpi\n      dup1\n      0x3430a88c\n      eq\n      tag_3\n      jumpi\n      dup1\n      0x6e5b6b28\n      eq\n      tag_4\n      jumpi\n      dup1\n      0x98d5fdca\n      eq\n      tag_5\n      jumpi\n      dup1\n      0xb60d4288\n      eq\n      tag_6\n      jumpi\n      dup1\n      0xebcbbd9d\n      eq\n      tag_7\n      jumpi\n    tag_1:\n      0x00\n      dup1\n      revert\n        /* \"FundMe.sol\":1282:1393  function gweiInEth (uint256 gweiAmount) public pure returns (uint256){... */\n    tag_2:\n      callvalue\n      dup1\n      iszero\n      tag_8\n      jumpi\n      0x00\n      dup1\n      revert\n    tag_8:\n      pop\n      tag_9\n      0x04\n      dup1\n      calldatasize\n      sub\n      dup2\n      add\n      swap1\n      tag_10\n      swap2\n      swap1\n      tag_11\n      jump\t// in\n    tag_10:\n      tag_12\n      jump\t// in\n    tag_9:\n      mload(0x40)\n      tag_13\n      swap2\n      swap1\n      tag_14\n      jump\t// in\n    tag_13:\n      mload(0x40)\n      dup1\n      swap2\n      sub\n      swap1\n      return\n        /* \"FundMe.sol\":235:265  uint256 public minimumUSD = 50 */\n    tag_3:\n      callvalue\n      dup1\n      iszero\n      tag_15\n      jumpi\n      0x00\n      dup1\n      revert\n    tag_15:\n      pop\n      tag_16\n      tag_17\n      jump\t// in\n    tag_16:\n      mload(0x40)\n      tag_18\n      swap2\n      swap1\n      tag_14\n      jump\t// in\n    tag_18:\n      mload(0x40)\n      dup1\n      swap2\n      sub\n      swap1\n      return\n        /* \"FundMe.sol\":897:1161  function getConversionRate(uint256 ethAmount) public view returns (uint256) {... */\n    tag_4:\n      callvalue\n      dup1\n      iszero\n      tag_19\n      jumpi\n      0x00\n      dup1\n      revert\n    tag_19:\n      pop\n      tag_20\n      0x04\n      dup1\n      calldatasize\n      sub\n      dup2\n      add\n      swap1\n      tag_21\n      swap2\n      swap1\n      tag_11\n      jump\t// in\n    tag_21:\n      tag_22\n      jump\t// in\n    tag_20:\n      mload(0x40)\n      tag_23\n      swap2\n      swap1\n      tag_14\n      jump\t// in\n    tag_23:\n      mload(0x40)\n      dup1\n      swap2\n      sub\n      swap1\n      return\n        /* \"FundMe.sol\":495:891  function getPrice() public view returns (uint256) {... */\n    tag_5:\n      callvalue\n      dup1\n      iszero\n      tag_24\n      jumpi\n      0x00\n      dup1\n      revert\n    tag_24:\n      pop\n      tag_25\n      tag_26\n      jump\t// in\n    tag_25:\n      mload(0x40)\n      tag_27\n      swap2\n      swap1\n      tag_14\n      jump\t// in\n    tag_27:\n      mload(0x40)\n      dup1\n      swap2\n      sub\n      swap1\n      return\n        /* \"FundMe.sol\":272:489  function fund() public payable {... */\n    tag_6:\n      tag_28\n      tag_29\n      jump\t// in\n    tag_28:\n      stop\n        /* \"FundMe.sol\":1167:1276  function ethInGwei (uint256 ethAmount) public pure returns (uint256){... */\n    tag_7:\n      callvalue\n      dup1\n      iszero\n      tag_30\n      jumpi\n      0x00\n      dup1\n      revert\n    tag_30:\n      pop\n      tag_31\n      0x04\n      dup1\n      calldatasize\n      sub\n      dup2\n      add\n      swap1\n      tag_32\n      swap2\n      swap1\n      tag_11\n      jump\t// in\n    tag_32:\n      tag_33\n      jump\t// in\n    tag_31:\n      mload(0x40)\n      tag_34\n      swap2\n      swap1\n      tag_14\n      jump\t// in\n    tag_34:\n      mload(0x40)\n      dup1\n      swap2\n      sub\n      swap1\n      return\n        /* \"FundMe.sol\":1282:1393  function gweiInEth (uint256 gweiAmount) public pure returns (uint256){... */\n    tag_12:\n        /* \"FundMe.sol\":1343:1350  uint256 */\n      0x00\n        /* \"FundMe.sol\":1382:1385  1e9 */\n      0x3b9aca00\n        /* \"FundMe.sol\":1369:1379  gweiAmount */\n      dup3\n        /* \"FundMe.sol\":1369:1385  gweiAmount / 1e9 */\n      tag_36\n      swap2\n      swap1\n      tag_37\n      jump\t// in\n    tag_36:\n        /* \"FundMe.sol\":1361:1386  return (gweiAmount / 1e9) */\n      swap1\n      pop\n        /* \"FundMe.sol\":1282:1393  function gweiInEth (uint256 gweiAmount) public pure returns (uint256){... */\n      swap2\n      swap1\n      pop\n      jump\t// out\n        /* \"FundMe.sol\":235:265  uint256 public minimumUSD = 50 */\n    tag_17:\n      sload(0x00)\n      dup2\n      jump\t// out\n        /* \"FundMe.sol\":897:1161  function getConversionRate(uint256 ethAmount) public view returns (uint256) {... */\n    tag_22:\n        /* \"FundMe.sol\":964:971  uint256 */\n      0x00\n        /* \"FundMe.sol\":983:999  uint256 ethPrice */\n      dup1\n        /* \"FundMe.sol\":1002:1012  getPrice() */\n      tag_39\n        /* \"FundMe.sol\":1002:1010  getPrice */\n      tag_26\n        /* \"FundMe.sol\":1002:1012  getPrice() */\n      jump\t// in\n    tag_39:\n        /* \"FundMe.sol\":983:1012  uint256 ethPrice = getPrice() */\n      swap1\n      pop\n        /* \"FundMe.sol\":1069:1091  uint256 ethAmountInUsd */\n      0x00\n        /* \"FundMe.sol\":1119:1123  1e18 */\n      0x0de0b6b3a7640000\n        /* \"FundMe.sol\":1106:1115  ethAmount */\n      dup5\n        /* \"FundMe.sol\":1095:1103  ethPrice */\n      dup4\n        /* \"FundMe.sol\":1095:1115  ethPrice * ethAmount */\n      tag_40\n      swap2\n      swap1\n      tag_41\n      jump\t// in\n    tag_40:\n        /* \"FundMe.sol\":1094:1123  (ethPrice * ethAmount) / 1e18 */\n      tag_42\n      swap2\n      swap1\n      tag_37\n      jump\t// in\n    tag_42:\n        /* \"FundMe.sol\":1069:1123  uint256 ethAmountInUsd = (ethPrice * ethAmount) / 1e18 */\n      swap1\n      pop\n        /* \"FundMe.sol\":1140:1154  ethAmountInUsd */\n      dup1\n        /* \"FundMe.sol\":1133:1154  return ethAmountInUsd */\n      swap3\n      pop\n      pop\n      pop\n        /* \"FundMe.sol\":897:1161  function getConversionRate(uint256 ethAmount) public view returns (uint256) {... */\n      swap2\n      swap1\n      pop\n      jump\t// out\n        /* \"FundMe.sol\":495:891  function getPrice() public view returns (uint256) {... */\n    tag_26:\n        /* \"FundMe.sol\":536:543  uint256 */\n      0x00\n        /* \"FundMe.sol\":621:652  AggregatorV3Interface priceFeed */\n      dup1\n        /* \"FundMe.sol\":677:719  0x694AA1769357215DE4FAC081bf1f309aDC325306 */\n      0x694aa1769357215de4fac081bf1f309adc325306\n        /* \"FundMe.sol\":621:720  AggregatorV3Interface priceFeed = AggregatorV3Interface(0x694AA1769357215DE4FAC081bf1f309aDC325306) */\n      swap1\n      pop\n        /* \"FundMe.sol\":728:740  int256 price */\n      0x00\n        /* \"FundMe.sol\":747:756  priceFeed */\n      dup2\n        /* \"FundMe.sol\":747:772  priceFeed.latestRoundData */\n      0xffffffffffffffffffffffffffffffffffffffff\n      and\n      0xfeaf968c\n        /* \"FundMe.sol\":747:774  priceFeed.latestRoundData() */\n      mload(0x40)\n      dup2\n      0xffffffff\n      and\n      0xe0\n      shl\n      dup2\n      mstore\n      0x04\n      add\n      0xa0\n      mload(0x40)\n      dup1\n      dup4\n      sub\n      dup2\n      dup7\n      gas\n      staticcall\n      iszero\n      dup1\n      iszero\n      tag_45\n      jumpi\n      returndatasize\n      0x00\n      dup1\n      returndatacopy\n      revert(0x00, returndatasize)\n    tag_45:\n      pop\n      pop\n      pop\n      pop\n      mload(0x40)\n      returndatasize\n      not(0x1f)\n      0x1f\n      dup3\n      add\n      and\n      dup3\n      add\n      dup1\n      0x40\n      mstore\n      pop\n      dup2\n      add\n      swap1\n      tag_46\n      swap2\n      swap1\n      tag_47\n      jump\t// in\n    tag_46:\n        /* \"FundMe.sol\":726:774  (,int256 price,,,) = priceFeed.latestRoundData() */\n      pop\n      pop\n      pop\n      swap2\n      pop\n      pop\n        /* \"FundMe.sol\":830:834  1e10 */\n      0x02540be400\n        /* \"FundMe.sol\":822:827  price */\n      dup2\n        /* \"FundMe.sol\":822:834  price * 1e10 */\n      tag_48\n      swap2\n      swap1\n      tag_49\n      jump\t// in\n    tag_48:\n        /* \"FundMe.sol\":807:835  return uint256(price * 1e10) */\n      swap3\n      pop\n      pop\n      pop\n        /* \"FundMe.sol\":495:891  function getPrice() public view returns (uint256) {... */\n      swap1\n      jump\t// out\n        /* \"FundMe.sol\":272:489  function fund() public payable {... */\n    tag_29:\n        /* \"FundMe.sol\":355:359  1e18 */\n      0x0de0b6b3a7640000\n        /* \"FundMe.sol\":321:351  getConversionRate((msg.value)) */\n      tag_51\n        /* \"FundMe.sol\":340:349  msg.value */\n      callvalue\n        /* \"FundMe.sol\":321:338  getConversionRate */\n      tag_22\n        /* \"FundMe.sol\":321:351  getConversionRate((msg.value)) */\n      jump\t// in\n    tag_51:\n        /* \"FundMe.sol\":321:359  getConversionRate((msg.value)) >= 1e18 */\n      lt\n      iszero\n        /* \"FundMe.sol\":313:382  require(getConversionRate((msg.value)) >= 1e18, \"Didn't send enough\") */\n      tag_52\n      jumpi\n      mload(0x40)\n      0x08c379a000000000000000000000000000000000000000000000000000000000\n      dup2\n      mstore\n      0x04\n      add\n      tag_53\n      swap1\n      tag_54\n      jump\t// in\n    tag_53:\n      mload(0x40)\n      dup1\n      swap2\n      sub\n      swap1\n      revert\n    tag_52:\n        /* \"FundMe.sol\":272:489  function fund() public payable {... */\n      jump\t// out\n        /* \"FundMe.sol\":1167:1276  function ethInGwei (uint256 ethAmount) public pure returns (uint256){... */\n    tag_33:\n        /* \"FundMe.sol\":1227:1234  uint256 */\n      0x00\n        /* \"FundMe.sol\":1265:1268  1e9 */\n      0x3b9aca00\n        /* \"FundMe.sol\":1253:1262  ethAmount */\n      dup3\n        /* \"FundMe.sol\":1253:1268  ethAmount * 1e9 */\n      tag_56\n      swap2\n      swap1\n      tag_41\n      jump\t// in\n    tag_56:\n        /* \"FundMe.sol\":1245:1269  return (ethAmount * 1e9) */\n      swap1\n      pop\n        /* \"FundMe.sol\":1167:1276  function ethInGwei (uint256 ethAmount) public pure returns (uint256){... */\n      swap2\n      swap1\n      pop\n      jump\t// out\n        /* \"#utility.yul\":88:205   */\n    tag_58:\n        /* \"#utility.yul\":197:198   */\n      0x00\n        /* \"#utility.yul\":194:195   */\n      dup1\n        /* \"#utility.yul\":187:199   */\n      revert\n        /* \"#utility.yul\":334:411   */\n    tag_60:\n        /* \"#utility.yul\":371:378   */\n      0x00\n        /* \"#utility.yul\":400:405   */\n      dup2\n        /* \"#utility.yul\":389:405   */\n      swap1\n      pop\n        /* \"#utility.yul\":334:411   */\n      swap2\n      swap1\n      pop\n      jump\t// out\n        /* \"#utility.yul\":417:539   */\n    tag_61:\n        /* \"#utility.yul\":490:514   */\n      tag_82\n        /* \"#utility.yul\":508:513   */\n      dup2\n        /* \"#utility.yul\":490:514   */\n      tag_60\n      jump\t// in\n    tag_82:\n        /* \"#utility.yul\":483:488   */\n      dup2\n        /* \"#utility.yul\":480:515   */\n      eq\n        /* \"#utility.yul\":470:533   */\n      tag_83\n      jumpi\n        /* \"#utility.yul\":529:530   */\n      0x00\n        /* \"#utility.yul\":526:527   */\n      dup1\n        /* \"#utility.yul\":519:531   */\n      revert\n        /* \"#utility.yul\":470:533   */\n    tag_83:\n        /* \"#utility.yul\":417:539   */\n      pop\n      jump\t// out\n        /* \"#utility.yul\":545:684   */\n    tag_62:\n        /* \"#utility.yul\":591:596   */\n      0x00\n        /* \"#utility.yul\":629:635   */\n      dup2\n        /* \"#utility.yul\":616:636   */\n      calldataload\n        /* \"#utility.yul\":607:636   */\n      swap1\n      pop\n        /* \"#utility.yul\":645:678   */\n      tag_85\n        /* \"#utility.yul\":672:677   */\n      dup2\n        /* \"#utility.yul\":645:678   */\n      tag_61\n      jump\t// in\n    tag_85:\n        /* \"#utility.yul\":545:684   */\n      swap3\n      swap2\n      pop\n      pop\n      jump\t// out\n        /* \"#utility.yul\":690:1019   */\n    tag_11:\n        /* \"#utility.yul\":749:755   */\n      0x00\n        /* \"#utility.yul\":798:800   */\n      0x20\n        /* \"#utility.yul\":786:795   */\n      dup3\n        /* \"#utility.yul\":777:784   */\n      dup5\n        /* \"#utility.yul\":773:796   */\n      sub\n        /* \"#utility.yul\":769:801   */\n      slt\n        /* \"#utility.yul\":766:885   */\n      iszero\n      tag_87\n      jumpi\n        /* \"#utility.yul\":804:883   */\n      tag_88\n      tag_58\n      jump\t// in\n    tag_88:\n        /* \"#utility.yul\":766:885   */\n    tag_87:\n        /* \"#utility.yul\":924:925   */\n      0x00\n        /* \"#utility.yul\":949:1002   */\n      tag_89\n        /* \"#utility.yul\":994:1001   */\n      dup5\n        /* \"#utility.yul\":985:991   */\n      dup3\n        /* \"#utility.yul\":974:983   */\n      dup6\n        /* \"#utility.yul\":970:992   */\n      add\n        /* \"#utility.yul\":949:1002   */\n      tag_62\n      jump\t// in\n    tag_89:\n        /* \"#utility.yul\":939:1002   */\n      swap2\n      pop\n        /* \"#utility.yul\":895:1012   */\n      pop\n        /* \"#utility.yul\":690:1019   */\n      swap3\n      swap2\n      pop\n      pop\n      jump\t// out\n        /* \"#utility.yul\":1025:1143   */\n    tag_63:\n        /* \"#utility.yul\":1112:1136   */\n      tag_91\n        /* \"#utility.yul\":1130:1135   */\n      dup2\n        /* \"#utility.yul\":1112:1136   */\n      tag_60\n      jump\t// in\n    tag_91:\n        /* \"#utility.yul\":1107:1110   */\n      dup3\n        /* \"#utility.yul\":1100:1137   */\n      mstore\n        /* \"#utility.yul\":1025:1143   */\n      pop\n      pop\n      jump\t// out\n        /* \"#utility.yul\":1149:1371   */\n    tag_14:\n        /* \"#utility.yul\":1242:1246   */\n      0x00\n        /* \"#utility.yul\":1280:1282   */\n      0x20\n        /* \"#utility.yul\":1269:1278   */\n      dup3\n        /* \"#utility.yul\":1265:1283   */\n      add\n        /* \"#utility.yul\":1257:1283   */\n      swap1\n      pop\n        /* \"#utility.yul\":1293:1364   */\n      tag_93\n        /* \"#utility.yul\":1361:1362   */\n      0x00\n        /* \"#utility.yul\":1350:1359   */\n      dup4\n        /* \"#utility.yul\":1346:1363   */\n      add\n        /* \"#utility.yul\":1337:1343   */\n      dup5\n        /* \"#utility.yul\":1293:1364   */\n      tag_63\n      jump\t// in\n    tag_93:\n        /* \"#utility.yul\":1149:1371   */\n      swap3\n      swap2\n      pop\n      pop\n      jump\t// out\n        /* \"#utility.yul\":1377:1557   */\n    tag_64:\n        /* \"#utility.yul\":1425:1502   */\n      0x4e487b7100000000000000000000000000000000000000000000000000000000\n        /* \"#utility.yul\":1422:1423   */\n      0x00\n        /* \"#utility.yul\":1415:1503   */\n      mstore\n        /* \"#utility.yul\":1522:1526   */\n      0x12\n        /* \"#utility.yul\":1519:1520   */\n      0x04\n        /* \"#utility.yul\":1512:1527   */\n      mstore\n        /* \"#utility.yul\":1546:1550   */\n      0x24\n        /* \"#utility.yul\":1543:1544   */\n      0x00\n        /* \"#utility.yul\":1536:1551   */\n      revert\n        /* \"#utility.yul\":1563:1743   */\n    tag_65:\n        /* \"#utility.yul\":1611:1688   */\n      0x4e487b7100000000000000000000000000000000000000000000000000000000\n        /* \"#utility.yul\":1608:1609   */\n      0x00\n        /* \"#utility.yul\":1601:1689   */\n      mstore\n        /* \"#utility.yul\":1708:1712   */\n      0x11\n        /* \"#utility.yul\":1705:1706   */\n      0x04\n        /* \"#utility.yul\":1698:1713   */\n      mstore\n        /* \"#utility.yul\":1732:1736   */\n      0x24\n        /* \"#utility.yul\":1729:1730   */\n      0x00\n        /* \"#utility.yul\":1722:1737   */\n      revert\n        /* \"#utility.yul\":1749:1934   */\n    tag_37:\n        /* \"#utility.yul\":1789:1790   */\n      0x00\n        /* \"#utility.yul\":1806:1826   */\n      tag_97\n        /* \"#utility.yul\":1824:1825   */\n      dup3\n        /* \"#utility.yul\":1806:1826   */\n      tag_60\n      jump\t// in\n    tag_97:\n        /* \"#utility.yul\":1801:1826   */\n      swap2\n      pop\n        /* \"#utility.yul\":1840:1860   */\n      tag_98\n        /* \"#utility.yul\":1858:1859   */\n      dup4\n        /* \"#utility.yul\":1840:1860   */\n      tag_60\n      jump\t// in\n    tag_98:\n        /* \"#utility.yul\":1835:1860   */\n      swap3\n      pop\n        /* \"#utility.yul\":1879:1880   */\n      dup3\n        /* \"#utility.yul\":1869:1904   */\n      tag_99\n      jumpi\n        /* \"#utility.yul\":1884:1902   */\n      tag_100\n      tag_64\n      jump\t// in\n    tag_100:\n        /* \"#utility.yul\":1869:1904   */\n    tag_99:\n        /* \"#utility.yul\":1926:1927   */\n      dup3\n        /* \"#utility.yul\":1923:1924   */\n      dup3\n        /* \"#utility.yul\":1919:1928   */\n      div\n        /* \"#utility.yul\":1914:1928   */\n      swap1\n      pop\n        /* \"#utility.yul\":1749:1934   */\n      swap3\n      swap2\n      pop\n      pop\n      jump\t// out\n        /* \"#utility.yul\":1940:2350   */\n    tag_41:\n        /* \"#utility.yul\":1980:1987   */\n      0x00\n        /* \"#utility.yul\":2003:2023   */\n      tag_102\n        /* \"#utility.yul\":2021:2022   */\n      dup3\n        /* \"#utility.yul\":2003:2023   */\n      tag_60\n      jump\t// in\n    tag_102:\n        /* \"#utility.yul\":1998:2023   */\n      swap2\n      pop\n        /* \"#utility.yul\":2037:2057   */\n      tag_103\n        /* \"#utility.yul\":2055:2056   */\n      dup4\n        /* \"#utility.yul\":2037:2057   */\n      tag_60\n      jump\t// in\n    tag_103:\n        /* \"#utility.yul\":2032:2057   */\n      swap3\n      pop\n        /* \"#utility.yul\":2092:2093   */\n      dup3\n        /* \"#utility.yul\":2089:2090   */\n      dup3\n        /* \"#utility.yul\":2085:2094   */\n      mul\n        /* \"#utility.yul\":2114:2144   */\n      tag_104\n        /* \"#utility.yul\":2132:2143   */\n      dup2\n        /* \"#utility.yul\":2114:2144   */\n      tag_60\n      jump\t// in\n    tag_104:\n        /* \"#utility.yul\":2103:2144   */\n      swap2\n      pop\n        /* \"#utility.yul\":2293:2294   */\n      dup3\n        /* \"#utility.yul\":2284:2291   */\n      dup3\n        /* \"#utility.yul\":2280:2295   */\n      div\n        /* \"#utility.yul\":2277:2278   */\n      dup5\n        /* \"#utility.yul\":2274:2296   */\n      eq\n        /* \"#utility.yul\":2254:2255   */\n      dup4\n        /* \"#utility.yul\":2247:2256   */\n      iszero\n        /* \"#utility.yul\":2227:2310   */\n      or\n        /* \"#utility.yul\":2204:2343   */\n      tag_105\n      jumpi\n        /* \"#utility.yul\":2323:2341   */\n      tag_106\n      tag_65\n      jump\t// in\n    tag_106:\n        /* \"#utility.yul\":2204:2343   */\n    tag_105:\n        /* \"#utility.yul\":1988:2350   */\n      pop\n        /* \"#utility.yul\":1940:2350   */\n      swap3\n      swap2\n      pop\n      pop\n      jump\t// out\n        /* \"#utility.yul\":2356:2461   */\n    tag_66:\n        /* \"#utility.yul\":2392:2399   */\n      0x00\n        /* \"#utility.yul\":2432:2454   */\n      0xffffffffffffffffffff\n        /* \"#utility.yul\":2425:2430   */\n      dup3\n        /* \"#utility.yul\":2421:2455   */\n      and\n        /* \"#utility.yul\":2410:2455   */\n      swap1\n      pop\n        /* \"#utility.yul\":2356:2461   */\n      swap2\n      swap1\n      pop\n      jump\t// out\n        /* \"#utility.yul\":2467:2587   */\n    tag_67:\n        /* \"#utility.yul\":2539:2562   */\n      tag_109\n        /* \"#utility.yul\":2556:2561   */\n      dup2\n        /* \"#utility.yul\":2539:2562   */\n      tag_66\n      jump\t// in\n    tag_109:\n        /* \"#utility.yul\":2532:2537   */\n      dup2\n        /* \"#utility.yul\":2529:2563   */\n      eq\n        /* \"#utility.yul\":2519:2581   */\n      tag_110\n      jumpi\n        /* \"#utility.yul\":2577:2578   */\n      0x00\n        /* \"#utility.yul\":2574:2575   */\n      dup1\n        /* \"#utility.yul\":2567:2579   */\n      revert\n        /* \"#utility.yul\":2519:2581   */\n    tag_110:\n        /* \"#utility.yul\":2467:2587   */\n      pop\n      jump\t// out\n        /* \"#utility.yul\":2593:2734   */\n    tag_68:\n        /* \"#utility.yul\":2649:2654   */\n      0x00\n        /* \"#utility.yul\":2680:2686   */\n      dup2\n        /* \"#utility.yul\":2674:2687   */\n      mload\n        /* \"#utility.yul\":2665:2687   */\n      swap1\n      pop\n        /* \"#utility.yul\":2696:2728   */\n      tag_112\n        /* \"#utility.yul\":2722:2727   */\n      dup2\n        /* \"#utility.yul\":2696:2728   */\n      tag_67\n      jump\t// in\n    tag_112:\n        /* \"#utility.yul\":2593:2734   */\n      swap3\n      swap2\n      pop\n      pop\n      jump\t// out\n        /* \"#utility.yul\":2740:2816   */\n    tag_69:\n        /* \"#utility.yul\":2776:2783   */\n      0x00\n        /* \"#utility.yul\":2805:2810   */\n      dup2\n        /* \"#utility.yul\":2794:2810   */\n      swap1\n      pop\n        /* \"#utility.yul\":2740:2816   */\n      swap2\n      swap1\n      pop\n      jump\t// out\n        /* \"#utility.yul\":2822:2942   */\n    tag_70:\n        /* \"#utility.yul\":2894:2917   */\n      tag_115\n        /* \"#utility.yul\":2911:2916   */\n      dup2\n        /* \"#utility.yul\":2894:2917   */\n      tag_69\n      jump\t// in\n    tag_115:\n        /* \"#utility.yul\":2887:2892   */\n      dup2\n        /* \"#utility.yul\":2884:2918   */\n      eq\n        /* \"#utility.yul\":2874:2936   */\n      tag_116\n      jumpi\n        /* \"#utility.yul\":2932:2933   */\n      0x00\n        /* \"#utility.yul\":2929:2930   */\n      dup1\n        /* \"#utility.yul\":2922:2934   */\n      revert\n        /* \"#utility.yul\":2874:2936   */\n    tag_116:\n        /* \"#utility.yul\":2822:2942   */\n      pop\n      jump\t// out\n        /* \"#utility.yul\":2948:3089   */\n    tag_71:\n        /* \"#utility.yul\":3004:3009   */\n      0x00\n        /* \"#utility.yul\":3035:3041   */\n      dup2\n        /* \"#utility.yul\":3029:3042   */\n      mload\n        /* \"#utility.yul\":3020:3042   */\n      swap1\n      pop\n        /* \"#utility.yul\":3051:3083   */\n      tag_118\n        /* \"#utility.yul\":3077:3082   */\n      dup2\n        /* \"#utility.yul\":3051:3083   */\n      tag_70\n      jump\t// in\n    tag_118:\n        /* \"#utility.yul\":2948:3089   */\n      swap3\n      swap2\n      pop\n      pop\n      jump\t// out\n        /* \"#utility.yul\":3095:3238   */\n    tag_72:\n        /* \"#utility.yul\":3152:3157   */\n      0x00\n        /* \"#utility.yul\":3183:3189   */\n      dup2\n        /* \"#utility.yul\":3177:3190   */\n      mload\n        /* \"#utility.yul\":3168:3190   */\n      swap1\n      pop\n        /* \"#utility.yul\":3199:3232   */\n      tag_120\n        /* \"#utility.yul\":3226:3231   */\n      dup2\n        /* \"#utility.yul\":3199:3232   */\n      tag_61\n      jump\t// in\n    tag_120:\n        /* \"#utility.yul\":3095:3238   */\n      swap3\n      swap2\n      pop\n      pop\n      jump\t// out\n        /* \"#utility.yul\":3244:4215   */\n    tag_47:\n        /* \"#utility.yul\":3347:3353   */\n      0x00\n        /* \"#utility.yul\":3355:3361   */\n      dup1\n        /* \"#utility.yul\":3363:3369   */\n      0x00\n        /* \"#utility.yul\":3371:3377   */\n      dup1\n        /* \"#utility.yul\":3379:3385   */\n      0x00\n        /* \"#utility.yul\":3428:3431   */\n      0xa0\n        /* \"#utility.yul\":3416:3425   */\n      dup7\n        /* \"#utility.yul\":3407:3414   */\n      dup9\n        /* \"#utility.yul\":3403:3426   */\n      sub\n        /* \"#utility.yul\":3399:3432   */\n      slt\n        /* \"#utility.yul\":3396:3516   */\n      iszero\n      tag_122\n      jumpi\n        /* \"#utility.yul\":3435:3514   */\n      tag_123\n      tag_58\n      jump\t// in\n    tag_123:\n        /* \"#utility.yul\":3396:3516   */\n    tag_122:\n        /* \"#utility.yul\":3555:3556   */\n      0x00\n        /* \"#utility.yul\":3580:3643   */\n      tag_124\n        /* \"#utility.yul\":3635:3642   */\n      dup9\n        /* \"#utility.yul\":3626:3632   */\n      dup3\n        /* \"#utility.yul\":3615:3624   */\n      dup10\n        /* \"#utility.yul\":3611:3633   */\n      add\n        /* \"#utility.yul\":3580:3643   */\n      tag_68\n      jump\t// in\n    tag_124:\n        /* \"#utility.yul\":3570:3643   */\n      swap6\n      pop\n        /* \"#utility.yul\":3526:3653   */\n      pop\n        /* \"#utility.yul\":3692:3694   */\n      0x20\n        /* \"#utility.yul\":3718:3781   */\n      tag_125\n        /* \"#utility.yul\":3773:3780   */\n      dup9\n        /* \"#utility.yul\":3764:3770   */\n      dup3\n        /* \"#utility.yul\":3753:3762   */\n      dup10\n        /* \"#utility.yul\":3749:3771   */\n      add\n        /* \"#utility.yul\":3718:3781   */\n      tag_71\n      jump\t// in\n    tag_125:\n        /* \"#utility.yul\":3708:3781   */\n      swap5\n      pop\n        /* \"#utility.yul\":3663:3791   */\n      pop\n        /* \"#utility.yul\":3830:3832   */\n      0x40\n        /* \"#utility.yul\":3856:3920   */\n      tag_126\n        /* \"#utility.yul\":3912:3919   */\n      dup9\n        /* \"#utility.yul\":3903:3909   */\n      dup3\n        /* \"#utility.yul\":3892:3901   */\n      dup10\n        /* \"#utility.yul\":3888:3910   */\n      add\n        /* \"#utility.yul\":3856:3920   */\n      tag_72\n      jump\t// in\n    tag_126:\n        /* \"#utility.yul\":3846:3920   */\n      swap4\n      pop\n        /* \"#utility.yul\":3801:3930   */\n      pop\n        /* \"#utility.yul\":3969:3971   */\n      0x60\n        /* \"#utility.yul\":3995:4059   */\n      tag_127\n        /* \"#utility.yul\":4051:4058   */\n      dup9\n        /* \"#utility.yul\":4042:4048   */\n      dup3\n        /* \"#utility.yul\":4031:4040   */\n      dup10\n        /* \"#utility.yul\":4027:4049   */\n      add\n        /* \"#utility.yul\":3995:4059   */\n      tag_72\n      jump\t// in\n    tag_127:\n        /* \"#utility.yul\":3985:4059   */\n      swap3\n      pop\n        /* \"#utility.yul\":3940:4069   */\n      pop\n        /* \"#utility.yul\":4108:4111   */\n      0x80\n        /* \"#utility.yul\":4135:4198   */\n      tag_128\n        /* \"#utility.yul\":4190:4197   */\n      dup9\n        /* \"#utility.yul\":4181:4187   */\n      dup3\n        /* \"#utility.yul\":4170:4179   */\n      dup10\n        /* \"#utility.yul\":4166:4188   */\n      add\n        /* \"#utility.yul\":4135:4198   */\n      tag_68\n      jump\t// in\n    tag_128:\n        /* \"#utility.yul\":4125:4198   */\n      swap2\n      pop\n        /* \"#utility.yul\":4079:4208   */\n      pop\n        /* \"#utility.yul\":3244:4215   */\n      swap3\n      swap6\n      pop\n      swap3\n      swap6\n      swap1\n      swap4\n      pop\n      jump\t// out\n        /* \"#utility.yul\":4221:4777   */\n    tag_49:\n        /* \"#utility.yul\":4260:4267   */\n      0x00\n        /* \"#utility.yul\":4283:4302   */\n      tag_130\n        /* \"#utility.yul\":4300:4301   */\n      dup3\n        /* \"#utility.yul\":4283:4302   */\n      tag_69\n      jump\t// in\n    tag_130:\n        /* \"#utility.yul\":4278:4302   */\n      swap2\n      pop\n        /* \"#utility.yul\":4316:4335   */\n      tag_131\n        /* \"#utility.yul\":4333:4334   */\n      dup4\n        /* \"#utility.yul\":4316:4335   */\n      tag_69\n      jump\t// in\n    tag_131:\n        /* \"#utility.yul\":4311:4335   */\n      swap3\n      pop\n        /* \"#utility.yul\":4370:4371   */\n      dup3\n        /* \"#utility.yul\":4367:4368   */\n      dup3\n        /* \"#utility.yul\":4363:4372   */\n      mul\n        /* \"#utility.yul\":4392:4421   */\n      tag_132\n        /* \"#utility.yul\":4409:4420   */\n      dup2\n        /* \"#utility.yul\":4392:4421   */\n      tag_69\n      jump\t// in\n    tag_132:\n        /* \"#utility.yul\":4381:4421   */\n      swap2\n      pop\n        /* \"#utility.yul\":4479:4545   */\n      0x8000000000000000000000000000000000000000000000000000000000000000\n        /* \"#utility.yul\":4476:4477   */\n      dup5\n        /* \"#utility.yul\":4473:4546   */\n      eq\n        /* \"#utility.yul\":4469:4470   */\n      0x00\n        /* \"#utility.yul\":4466:4467   */\n      dup5\n        /* \"#utility.yul\":4462:4471   */\n      slt\n        /* \"#utility.yul\":4458:4547   */\n      and\n        /* \"#utility.yul\":4455:4570   */\n      iszero\n      tag_133\n      jumpi\n        /* \"#utility.yul\":4550:4568   */\n      tag_134\n      tag_65\n      jump\t// in\n    tag_134:\n        /* \"#utility.yul\":4455:4570   */\n    tag_133:\n        /* \"#utility.yul\":4720:4721   */\n      dup3\n        /* \"#utility.yul\":4711:4718   */\n      dup3\n        /* \"#utility.yul\":4706:4722   */\n      sdiv\n        /* \"#utility.yul\":4703:4704   */\n      dup5\n        /* \"#utility.yul\":4700:4723   */\n      eq\n        /* \"#utility.yul\":4680:4681   */\n      dup4\n        /* \"#utility.yul\":4673:4682   */\n      iszero\n        /* \"#utility.yul\":4653:4737   */\n      or\n        /* \"#utility.yul\":4630:4770   */\n      tag_135\n      jumpi\n        /* \"#utility.yul\":4750:4768   */\n      tag_136\n      tag_65\n      jump\t// in\n    tag_136:\n        /* \"#utility.yul\":4630:4770   */\n    tag_135:\n        /* \"#utility.yul\":4268:4777   */\n      pop\n        /* \"#utility.yul\":4221:4777   */\n      swap3\n      swap2\n      pop\n      pop\n      jump\t// out\n        /* \"#utility.yul\":4783:4952   */\n    tag_73:\n        /* \"#utility.yul\":4867:4878   */\n      0x00\n        /* \"#utility.yul\":4901:4907   */\n      dup3\n        /* \"#utility.yul\":4896:4899   */\n      dup3\n        /* \"#utility.yul\":4889:4908   */\n      mstore\n        /* \"#utility.yul\":4941:4945   */\n      0x20\n        /* \"#utility.yul\":4936:4939   */\n      dup3\n        /* \"#utility.yul\":4932:4946   */\n      add\n        /* \"#utility.yul\":4917:4946   */\n      swap1\n      pop\n        /* \"#utility.yul\":4783:4952   */\n      swap3\n      swap2\n      pop\n      pop\n      jump\t// out\n        /* \"#utility.yul\":4958:5126   */\n    tag_74:\n        /* \"#utility.yul\":5098:5118   */\n      0x4469646e27742073656e6420656e6f7567680000000000000000000000000000\n        /* \"#utility.yul\":5094:5095   */\n      0x00\n        /* \"#utility.yul\":5086:5092   */\n      dup3\n        /* \"#utility.yul\":5082:5096   */\n      add\n        /* \"#utility.yul\":5075:5119   */\n      mstore\n        /* \"#utility.yul\":4958:5126   */\n      pop\n      jump\t// out\n        /* \"#utility.yul\":5132:5498   */\n    tag_75:\n        /* \"#utility.yul\":5274:5277   */\n      0x00\n        /* \"#utility.yul\":5295:5362   */\n      tag_140\n        /* \"#utility.yul\":5359:5361   */\n      0x12\n        /* \"#utility.yul\":5354:5357   */\n      dup4\n        /* \"#utility.yul\":5295:5362   */\n      tag_73\n      jump\t// in\n    tag_140:\n        /* \"#utility.yul\":5288:5362   */\n      swap2\n      pop\n        /* \"#utility.yul\":5371:5464   */\n      tag_141\n        /* \"#utility.yul\":5460:5463   */\n      dup3\n        /* \"#utility.yul\":5371:5464   */\n      tag_74\n      jump\t// in\n    tag_141:\n        /* \"#utility.yul\":5489:5491   */\n      0x20\n        /* \"#utility.yul\":5484:5487   */\n      dup3\n        /* \"#utility.yul\":5480:5492   */\n      add\n        /* \"#utility.yul\":5473:5492   */\n      swap1\n      pop\n        /* \"#utility.yul\":5132:5498   */\n      swap2\n      swap1\n      pop\n      jump\t// out\n        /* \"#utility.yul\":5504:5923   */\n    tag_54:\n        /* \"#utility.yul\":5670:5674   */\n      0x00\n        /* \"#utility.yul\":5708:5710   */\n      0x20\n        /* \"#utility.yul\":5697:5706   */\n      dup3\n        /* \"#utility.yul\":5693:5711   */\n      add\n        /* \"#utility.yul\":5685:5711   */\n      swap1\n      pop\n        /* \"#utility.yul\":5757:5766   */\n      dup2\n        /* \"#utility.yul\":5751:5755   */\n      dup2\n        /* \"#utility.yul\":5747:5767   */\n      sub\n        /* \"#utility.yul\":5743:5744   */\n      0x00\n        /* \"#utility.yul\":5732:5741   */\n      dup4\n        /* \"#utility.yul\":5728:5745   */\n      add\n        /* \"#utility.yul\":5721:5768   */\n      mstore\n        /* \"#utility.yul\":5785:5916   */\n      tag_143\n        /* \"#utility.yul\":5911:5915   */\n      dup2\n        /* \"#utility.yul\":5785:5916   */\n      tag_75\n      jump\t// in\n    tag_143:\n        /* \"#utility.yul\":5777:5916   */\n      swap1\n      pop\n        /* \"#utility.yul\":5504:5923   */\n      swap2\n      swap1\n      pop\n      jump\t// out\n\n    auxdata: 0xa26469706673582212204385d59bf19ce2363ae27b29d08ceff97d7819bcaecd186dcca603654cc10cb364736f6c63430008120033\n}\n",
				"bytecode": {
					"linkReferences": {},
					"object": "6080604052603260005534801561001557600080fd5b50610677806100256000396000f3fe6080604052600436106100555760003560e01c806333596ac81461005a5780633430a88c146100975780636e5b6b28146100c257806398d5fdca146100ff578063b60d42881461012a578063ebcbbd9d14610134575b600080fd5b34801561006657600080fd5b50610081600480360381019061007c919061031c565b610171565b60405161008e9190610358565b60405180910390f35b3480156100a357600080fd5b506100ac61018a565b6040516100b99190610358565b60405180910390f35b3480156100ce57600080fd5b506100e960048036038101906100e4919061031c565b610190565b6040516100f69190610358565b60405180910390f35b34801561010b57600080fd5b506101146101ca565b6040516101219190610358565b60405180910390f35b610132610273565b005b34801561014057600080fd5b5061015b6004803603810190610156919061031c565b6102c8565b6040516101689190610358565b60405180910390f35b6000633b9aca008261018391906103d1565b9050919050565b60005481565b60008061019b6101ca565b90506000670de0b6b3a764000084836101b49190610402565b6101be91906103d1565b90508092505050919050565b60008073694aa1769357215de4fac081bf1f309adc325306905060008173ffffffffffffffffffffffffffffffffffffffff1663feaf968c6040518163ffffffff1660e01b815260040160a060405180830381865afa158015610231573d6000803e3d6000fd5b505050506040513d601f19601f8201168201806040525081019061025591906104d1565b5050509150506402540be4008161026c919061054c565b9250505090565b670de0b6b3a764000061028534610190565b10156102c6576040517f08c379a00000000000000000000000000000000000000000000000000000000081526004016102bd90610621565b60405180910390fd5b565b6000633b9aca00826102da9190610402565b9050919050565b600080fd5b6000819050919050565b6102f9816102e6565b811461030457600080fd5b50565b600081359050610316816102f0565b92915050565b600060208284031215610332576103316102e1565b5b600061034084828501610307565b91505092915050565b610352816102e6565b82525050565b600060208201905061036d6000830184610349565b92915050565b7f4e487b7100000000000000000000000000000000000000000000000000000000600052601260045260246000fd5b7f4e487b7100000000000000000000000000000000000000000000000000000000600052601160045260246000fd5b60006103dc826102e6565b91506103e7836102e6565b9250826103f7576103f6610373565b5b828204905092915050565b600061040d826102e6565b9150610418836102e6565b9250828202610426816102e6565b9150828204841483151761043d5761043c6103a2565b5b5092915050565b600069ffffffffffffffffffff82169050919050565b61046381610444565b811461046e57600080fd5b50565b6000815190506104808161045a565b92915050565b6000819050919050565b61049981610486565b81146104a457600080fd5b50565b6000815190506104b681610490565b92915050565b6000815190506104cb816102f0565b92915050565b600080600080600060a086880312156104ed576104ec6102e1565b5b60006104fb88828901610471565b955050602061050c888289016104a7565b945050604061051d888289016104bc565b935050606061052e888289016104bc565b925050608061053f88828901610471565b9150509295509295909350565b600061055782610486565b915061056283610486565b925082820261057081610486565b91507f800000000000000000000000000000000000000000000000000000000000000084146000841216156105a8576105a76103a2565b5b82820584148315176105bd576105bc6103a2565b5b5092915050565b600082825260208201905092915050565b7f4469646e27742073656e6420656e6f7567680000000000000000000000000000600082015250565b600061060b6012836105c4565b9150610616826105d5565b602082019050919050565b6000602082019050818103600083015261063a816105fe565b905091905056fea26469706673582212204385d59bf19ce2363ae27b29d08ceff97d7819bcaecd186dcca603654cc10cb364736f6c63430008120033",
					"opcodes": "PUSH1 0x80 PUSH1 0x40 MSTORE PUSH1 0x32 PUSH1 0x0 SSTORE CALLVALUE DUP1 ISZERO PUSH2 0x15 JUMPI PUSH1 0x0 DUP1 REVERT JUMPDEST POP PUSH2 0x677 DUP1 PUSH2 0x25 PUSH1 0x0 CODECOPY PUSH1 0x0 RETURN INVALID PUSH1 0x80 PUSH1 0x40 MSTORE PUSH1 0x4 CALLDATASIZE LT PUSH2 0x55 JUMPI PUSH1 0x0 CALLDATALOAD PUSH1 0xE0 SHR DUP1 PUSH4 0x33596AC8 EQ PUSH2 0x5A JUMPI DUP1 PUSH4 0x3430A88C EQ PUSH2 0x97 JUMPI DUP1 PUSH4 0x6E5B6B28 EQ PUSH2 0xC2 JUMPI DUP1 PUSH4 0x98D5FDCA EQ PUSH2 0xFF JUMPI DUP1 PUSH4 0xB60D4288 EQ PUSH2 0x12A JUMPI DUP1 PUSH4 0xEBCBBD9D EQ PUSH2 0x134 JUMPI JUMPDEST PUSH1 0x0 DUP1 REVERT JUMPDEST CALLVALUE DUP1 ISZERO PUSH2 0x66 JUMPI PUSH1 0x0 DUP1 REVERT JUMPDEST POP PUSH2 0x81 PUSH1 0x4 DUP1 CALLDATASIZE SUB DUP2 ADD SWAP1 PUSH2 0x7C SWAP2 SWAP1 PUSH2 0x31C JUMP JUMPDEST PUSH2 0x171 JUMP JUMPDEST PUSH1 0x40 MLOAD PUSH2 0x8E SWAP2 SWAP1 PUSH2 0x358 JUMP JUMPDEST PUSH1 0x40 MLOAD DUP1 SWAP2 SUB SWAP1 RETURN JUMPDEST CALLVALUE DUP1 ISZERO PUSH2 0xA3 JUMPI PUSH1 0x0 DUP1 REVERT JUMPDEST POP PUSH2 0xAC PUSH2 0x18A JUMP JUMPDEST PUSH1 0x40 MLOAD PUSH2 0xB9 SWAP2 SWAP1 PUSH2 0x358 JUMP JUMPDEST PUSH1 0x40 MLOAD DUP1 SWAP2 SUB SWAP1 RETURN JUMPDEST CALLVALUE DUP1 ISZERO PUSH2 0xCE JUMPI PUSH1 0x0 DUP1 REVERT JUMPDEST POP PUSH2 0xE9 PUSH1 0x4 DUP1 CALLDATASIZE SUB DUP2 ADD SWAP1 PUSH2 0xE4 SWAP2 SWAP1 PUSH2 0x31C JUMP JUMPDEST PUSH2 0x190 JUMP JUMPDEST PUSH1 0x40 MLOAD PUSH2 0xF6 SWAP2 SWAP1 PUSH2 0x358 JUMP JUMPDEST PUSH1 0x40 MLOAD DUP1 SWAP2 SUB SWAP1 RETURN JUMPDEST CALLVALUE DUP1 ISZERO PUSH2 0x10B JUMPI PUSH1 0x0 DUP1 REVERT JUMPDEST POP PUSH2 0x114 PUSH2 0x1CA JUMP JUMPDEST PUSH1 0x40 MLOAD PUSH2 0x121 SWAP2 SWAP1 PUSH2 0x358 JUMP JUMPDEST PUSH1 0x40 MLOAD DUP1 SWAP2 SUB SWAP1 RETURN JUMPDEST PUSH2 0x132 PUSH2 0x273 JUMP JUMPDEST STOP JUMPDEST CALLVALUE DUP1 ISZERO PUSH2 0x140 JUMPI PUSH1 0x0 DUP1 REVERT JUMPDEST POP PUSH2 0x15B PUSH1 0x4 DUP1 CALLDATASIZE SUB DUP2 ADD SWAP1 PUSH2 0x156 SWAP2 SWAP1 PUSH2 0x31C JUMP JUMPDEST PUSH2 0x2C8 JUMP JUMPDEST PUSH1 0x40 MLOAD PUSH2 0x168 SWAP2 SWAP1 PUSH2 0x358 JUMP JUMPDEST PUSH1 0x40 MLOAD DUP1 SWAP2 SUB SWAP1 RETURN JUMPDEST PUSH1 0x0 PUSH4 0x3B9ACA00 DUP3 PUSH2 0x183 SWAP2 SWAP1 PUSH2 0x3D1 JUMP JUMPDEST SWAP1 POP SWAP2 SWAP1 POP JUMP JUMPDEST PUSH1 0x0 SLOAD DUP2 JUMP JUMPDEST PUSH1 0x0 DUP1 PUSH2 0x19B PUSH2 0x1CA JUMP JUMPDEST SWAP1 POP PUSH1 0x0 PUSH8 0xDE0B6B3A7640000 DUP5 DUP4 PUSH2 0x1B4 SWAP2 SWAP1 PUSH2 0x402 JUMP JUMPDEST PUSH2 0x1BE SWAP2 SWAP1 PUSH2 0x3D1 JUMP JUMPDEST SWAP1 POP DUP1 SWAP3 POP POP POP SWAP2 SWAP1 POP JUMP JUMPDEST PUSH1 0x0 DUP1 PUSH20 0x694AA1769357215DE4FAC081BF1F309ADC325306 SWAP1 POP PUSH1 0x0 DUP2 PUSH20 0xFFFFFFFFFFFFFFFFFFFFFFFFFFFFFFFFFFFFFFFF AND PUSH4 0xFEAF968C PUSH1 0x40 MLOAD DUP2 PUSH4 0xFFFFFFFF AND PUSH1 0xE0 SHL DUP2 MSTORE PUSH1 0x4 ADD PUSH1 0xA0 PUSH1 0x40 MLOAD DUP1 DUP4 SUB DUP2 DUP7 GAS STATICCALL ISZERO DUP1 ISZERO PUSH2 0x231 JUMPI RETURNDATASIZE PUSH1 0x0 DUP1 RETURNDATACOPY RETURNDATASIZE PUSH1 0x0 REVERT JUMPDEST POP POP POP POP PUSH1 0x40 MLOAD RETURNDATASIZE PUSH1 0x1F NOT PUSH1 0x1F DUP3 ADD AND DUP3 ADD DUP1 PUSH1 0x40 MSTORE POP DUP2 ADD SWAP1 PUSH2 0x255 SWAP2 SWAP1 PUSH2 0x4D1 JUMP JUMPDEST POP POP POP SWAP2 POP POP PUSH5 0x2540BE400 DUP2 PUSH2 0x26C SWAP2 SWAP1 PUSH2 0x54C JUMP JUMPDEST SWAP3 POP POP POP SWAP1 JUMP JUMPDEST PUSH8 0xDE0B6B3A7640000 PUSH2 0x285 CALLVALUE PUSH2 0x190 JUMP JUMPDEST LT ISZERO PUSH2 0x2C6 JUMPI PUSH1 0x40 MLOAD PUSH32 0x8C379A000000000000000000000000000000000000000000000000000000000 DUP2 MSTORE PUSH1 0x4 ADD PUSH2 0x2BD SWAP1 PUSH2 0x621 JUMP JUMPDEST PUSH1 0x40 MLOAD DUP1 SWAP2 SUB SWAP1 REVERT JUMPDEST JUMP JUMPDEST PUSH1 0x0 PUSH4 0x3B9ACA00 DUP3 PUSH2 0x2DA SWAP2 SWAP1 PUSH2 0x402 JUMP JUMPDEST SWAP1 POP SWAP2 SWAP1 POP JUMP JUMPDEST PUSH1 0x0 DUP1 REVERT JUMPDEST PUSH1 0x0 DUP2 SWAP1 POP SWAP2 SWAP1 POP JUMP JUMPDEST PUSH2 0x2F9 DUP2 PUSH2 0x2E6 JUMP JUMPDEST DUP2 EQ PUSH2 0x304 JUMPI PUSH1 0x0 DUP1 REVERT JUMPDEST POP JUMP JUMPDEST PUSH1 0x0 DUP2 CALLDATALOAD SWAP1 POP PUSH2 0x316 DUP2 PUSH2 0x2F0 JUMP JUMPDEST SWAP3 SWAP2 POP POP JUMP JUMPDEST PUSH1 0x0 PUSH1 0x20 DUP3 DUP5 SUB SLT ISZERO PUSH2 0x332 JUMPI PUSH2 0x331 PUSH2 0x2E1 JUMP JUMPDEST JUMPDEST PUSH1 0x0 PUSH2 0x340 DUP5 DUP3 DUP6 ADD PUSH2 0x307 JUMP JUMPDEST SWAP2 POP POP SWAP3 SWAP2 POP POP JUMP JUMPDEST PUSH2 0x352 DUP2 PUSH2 0x2E6 JUMP JUMPDEST DUP3 MSTORE POP POP JUMP JUMPDEST PUSH1 0x0 PUSH1 0x20 DUP3 ADD SWAP1 POP PUSH2 0x36D PUSH1 0x0 DUP4 ADD DUP5 PUSH2 0x349 JUMP JUMPDEST SWAP3 SWAP2 POP POP JUMP JUMPDEST PUSH32 0x4E487B7100000000000000000000000000000000000000000000000000000000 PUSH1 0x0 MSTORE PUSH1 0x12 PUSH1 0x4 MSTORE PUSH1 0x24 PUSH1 0x0 REVERT JUMPDEST PUSH32 0x4E487B7100000000000000000000000000000000000000000000000000000000 PUSH1 0x0 MSTORE PUSH1 0x11 PUSH1 0x4 MSTORE PUSH1 0x24 PUSH1 0x0 REVERT JUMPDEST PUSH1 0x0 PUSH2 0x3DC DUP3 PUSH2 0x2E6 JUMP JUMPDEST SWAP2 POP PUSH2 0x3E7 DUP4 PUSH2 0x2E6 JUMP JUMPDEST SWAP3 POP DUP3 PUSH2 0x3F7 JUMPI PUSH2 0x3F6 PUSH2 0x373 JUMP JUMPDEST JUMPDEST DUP3 DUP3 DIV SWAP1 POP SWAP3 SWAP2 POP POP JUMP JUMPDEST PUSH1 0x0 PUSH2 0x40D DUP3 PUSH2 0x2E6 JUMP JUMPDEST SWAP2 POP PUSH2 0x418 DUP4 PUSH2 0x2E6 JUMP JUMPDEST SWAP3 POP DUP3 DUP3 MUL PUSH2 0x426 DUP2 PUSH2 0x2E6 JUMP JUMPDEST SWAP2 POP DUP3 DUP3 DIV DUP5 EQ DUP4 ISZERO OR PUSH2 0x43D JUMPI PUSH2 0x43C PUSH2 0x3A2 JUMP JUMPDEST JUMPDEST POP SWAP3 SWAP2 POP POP JUMP JUMPDEST PUSH1 0x0 PUSH10 0xFFFFFFFFFFFFFFFFFFFF DUP3 AND SWAP1 POP SWAP2 SWAP1 POP JUMP JUMPDEST PUSH2 0x463 DUP2 PUSH2 0x444 JUMP JUMPDEST DUP2 EQ PUSH2 0x46E JUMPI PUSH1 0x0 DUP1 REVERT JUMPDEST POP JUMP JUMPDEST PUSH1 0x0 DUP2 MLOAD SWAP1 POP PUSH2 0x480 DUP2 PUSH2 0x45A JUMP JUMPDEST SWAP3 SWAP2 POP POP JUMP JUMPDEST PUSH1 0x0 DUP2 SWAP1 POP SWAP2 SWAP1 POP JUMP JUMPDEST PUSH2 0x499 DUP2 PUSH2 0x486 JUMP JUMPDEST DUP2 EQ PUSH2 0x4A4 JUMPI PUSH1 0x0 DUP1 REVERT JUMPDEST POP JUMP JUMPDEST PUSH1 0x0 DUP2 MLOAD SWAP1 POP PUSH2 0x4B6 DUP2 PUSH2 0x490 JUMP JUMPDEST SWAP3 SWAP2 POP POP JUMP JUMPDEST PUSH1 0x0 DUP2 MLOAD SWAP1 POP PUSH2 0x4CB DUP2 PUSH2 0x2F0 JUMP JUMPDEST SWAP3 SWAP2 POP POP JUMP JUMPDEST PUSH1 0x0 DUP1 PUSH1 0x0 DUP1 PUSH1 0x0 PUSH1 0xA0 DUP7 DUP9 SUB SLT ISZERO PUSH2 0x4ED JUMPI PUSH2 0x4EC PUSH2 0x2E1 JUMP JUMPDEST JUMPDEST PUSH1 0x0 PUSH2 0x4FB DUP9 DUP3 DUP10 ADD PUSH2 0x471 JUMP JUMPDEST SWAP6 POP POP PUSH1 0x20 PUSH2 0x50C DUP9 DUP3 DUP10 ADD PUSH2 0x4A7 JUMP JUMPDEST SWAP5 POP POP PUSH1 0x40 PUSH2 0x51D DUP9 DUP3 DUP10 ADD PUSH2 0x4BC JUMP JUMPDEST SWAP4 POP POP PUSH1 0x60 PUSH2 0x52E DUP9 DUP3 DUP10 ADD PUSH2 0x4BC JUMP JUMPDEST SWAP3 POP POP PUSH1 0x80 PUSH2 0x53F DUP9 DUP3 DUP10 ADD PUSH2 0x471 JUMP JUMPDEST SWAP2 POP POP SWAP3 SWAP6 POP SWAP3 SWAP6 SWAP1 SWAP4 POP JUMP JUMPDEST PUSH1 0x0 PUSH2 0x557 DUP3 PUSH2 0x486 JUMP JUMPDEST SWAP2 POP PUSH2 0x562 DUP4 PUSH2 0x486 JUMP JUMPDEST SWAP3 POP DUP3 DUP3 MUL PUSH2 0x570 DUP2 PUSH2 0x486 JUMP JUMPDEST SWAP2 POP PUSH32 0x8000000000000000000000000000000000000000000000000000000000000000 DUP5 EQ PUSH1 0x0 DUP5 SLT AND ISZERO PUSH2 0x5A8 JUMPI PUSH2 0x5A7 PUSH2 0x3A2 JUMP JUMPDEST JUMPDEST DUP3 DUP3 SDIV DUP5 EQ DUP4 ISZERO OR PUSH2 0x5BD JUMPI PUSH2 0x5BC PUSH2 0x3A2 JUMP JUMPDEST JUMPDEST POP SWAP3 SWAP2 POP POP JUMP JUMPDEST PUSH1 0x0 DUP3 DUP3 MSTORE PUSH1 0x20 DUP3 ADD SWAP1 POP SWAP3 SWAP2 POP POP JUMP JUMPDEST PUSH32 0x4469646E27742073656E6420656E6F7567680000000000000000000000000000 PUSH1 0x0 DUP3 ADD MSTORE POP JUMP JUMPDEST PUSH1 0x0 PUSH2 0x60B PUSH1 0x12 DUP4 PUSH2 0x5C4 JUMP JUMPDEST SWAP2 POP PUSH2 0x616 DUP3 PUSH2 0x5D5 JUMP JUMPDEST PUSH1 0x20 DUP3 ADD SWAP1 POP SWAP2 SWAP1 POP JUMP JUMPDEST PUSH1 0x0 PUSH1 0x20 DUP3 ADD SWAP1 POP DUP2 DUP2 SUB PUSH1 0x0 DUP4 ADD MSTORE PUSH2 0x63A DUP2 PUSH2 0x5FE JUMP JUMPDEST SWAP1 POP SWAP2 SWAP1 POP JUMP INVALID LOG2 PUSH5 0x6970667358 0x22 SLT KECCAK256 NUMBER DUP6 0xD5 SWAP12 CALL SWAP13 0xE2 CALLDATASIZE GASPRICE 0xE2 PUSH28 0x29D08CEFF97D7819BCAECD186DCCA603654CC10CB364736F6C634300 ADDMOD SLT STOP CALLER "
				},
				"gasEstimates": {
					"creation": {
						"codeDepositCost": "331000",
						"executionCost": "22474",
						"totalCost": "353474"
					},
					"external": {
						"ethInGwei(uint256)": "infinite",
						"fund()": "infinite",
						"getConversionRate(uint256)": "infinite",
						"getPrice()": "infinite",
						"gweiInEth(uint256)": "infinite",
						"minimumUSD()": "2429"
					}
				},
				"methodIdentifiers": {
					"ethInGwei(uint256)": "ebcbbd9d",
					"fund()": "b60d4288",
					"getConversionRate(uint256)": "6e5b6b28",
					"getPrice()": "98d5fdca",
					"gweiInEth(uint256)": "33596ac8",
					"minimumUSD()": "3430a88c"
				}
			},
			"storageLayout": {
				"storage": [
					{
						"astId": 51,
						"contract": "FundMe.sol:FundMe",
						"label": "minimumUSD",
						"offset": 0,
						"slot": "0",
						"type": "t_uint256"
					}
				],
				"types": {
					"t_uint256": {
						"encoding": "inplace",
						"label": "uint256",
						"numberOfBytes": "32"
					}
				}
			},
			"userdoc": {
				"kind": "user",
				"methods": {},
				"version": 1
			}
		}
	}
}